:020000040800F2
:10000000000500204501000849030008F30200082C
:1000100045030008C1010008AF0B00080000000004
:10002000000000000000000000000000250500089E
:10003000C501000800000000D1030008B106000857
:100040005F0100085F0100085F0100085F01000810
:100050005F0100085F0100085F0100085F01000800
:100060005F0100085F0100085F0100085F010008F0
:100070005F0100085F0100085F0100085F010008E0
:100080005F0100085F0100085F0100085F010008D0
:100090005F0100085F0100085F0100085F010008C0
:1000A0005F0100085F0100085F0100085F010008B0
:1000B0005F010008150700085F0100085F010008E4
:1000C0005F0100085F0100085F0100085F01000890
:1000D0005F0100085F0100085F010008A508000833
:1000E0005F0100085F0100085F0100085F01000870
:1000F0005F0100085F0100085F0100085F01000860
:100100005F0100085F0100085F0100085F0100084F
:100110005F0100085F0100085F0100085F0100083F
:100120005F0100085F0100085F0100085F0100082F
:10013000DFF80CD000F032F800480047610C0008EE
:10014000000500200648804706480047FEE7FEE716
:10015000FEE7FEE7FEE7FEE7FEE7FEE7FEE7FEE777
:10016000B50600083101000840EA01039B0703D0EF
:1001700009E008C9121F08C0042AFAD203E011F8E6
:10018000013B00F8013B521EF9D27047421C10F8A7
:10019000011B0029FBD1801A70470000064C074D57
:1001A00006E0E06840F0010394E807009847103447
:1001B000AC42F6D3FFF7C0FF040D0008240D000881
:1001C00000BFFEE770472DE9F041024600250026FA
:1001D000002000230024002791F803C00CF00F0535
:1001E00091F803C00CF0100CBCF1000F03D091F893
:1001F00002C04CEA050591F800C0BCF1000F31D0F7
:10020000146800202BE04FF0010C0CFA00F3B1F859
:1002100000C00CEA03069E4220D183004FF00F0C71
:100220000CFA03F7BC4305FA03FC4CEA040491F80A
:1002300003C0BCF1280F06D14FF0010C0CFA00FCF2
:10024000C2F814C00AE091F803C0BCF1480F05D110
:100250004FF0010C0CFA00FCC2F810C0401C08283A
:10026000D1D31460B1F800C0BCF1FF0F34DD546885
:1002700000202EE000F1080C4FF0010808FA0CF302
:10028000B1F800C00CEA03069E4221D183004FF072
:100290000F0C0CFA03F7BC4305FA03FC4CEA040408
:1002A00091F803C0BCF1280F05D100F1080C08FA41
:1002B0000CF8C2F8148091F803C0BCF1480F07D1C4
:1002C00000F1080C4FF0010808FA0CF8C2F8108091
:1002D000401C0828CED35460BDE8F08102460020BF
:1002E00093680B400BB1012000E0002070470161D2
:1002F000704700BFFEE7000008B50121482000F06C
:1003000079F82020ADF8000010208DF803000320BC
:100310008DF8020069460948FFF755FF202107487C
:10032000FFF7E5FF2020ADF8000069460448FFF71D
:100330004AFF20210248FFF7DAFF08BD000C014008
:100340000018014000BFFEE77047000070B50021B3
:1003500000230F22C47804B3154C246804F4E0642D
:10036000C4F5E064210AC1F10403CA40447804FAE8
:1003700003F184781440214309010E4C0678A155FD
:10038000047804F01F050124AC4005786D11AD0020
:1003900005F1E025C5F8004109E0047804F01F05E7
:1003A0000124AC40044D0678761145F8264070BD16
:1003B0000CED00E000E400E080E100E002490143D0
:1003C000024A1160704700000000FA050CED00E0E1
:1003D0007047000029B1064AD2690243044BDA6132
:1003E00004E0034AD2698243014BDA61704700009E
:1003F0000010024029B1064A92690243044B9A61F7
:1004000004E0034A92698243014B9A6170470000FD
:100410000010024030B500210022002400232D4DA1
:100420006D6805F00C0121B1042905D0082923D1FC
:1004300005E0294D056022E0274D05601FE0254DB0
:100440006D6805F47012234D6D6805F48034022543
:1004500005EB92421CB9214D554305600BE01D4D43
:100460006D6805F400351DB11C4D5543056002E073
:10047000194D5543056002E0174D056000BF00BFF0
:10048000144D6D6805F0F0010909154D6B5C0568A8
:10049000DD4045600F4D6D6805F4E061090A104DBF
:1004A0006B5C4568DD4085600A4D6D6805F4605100
:1004B000C90A0B4D6B5C4568DD40C560054D6D6834
:1004C00005F44041890B074D6B5CC568B5FBF3F53E
:1004D000056130BD0010024000127A0000093D00A5
:1004E0001E0000202E00002008B501210420FFF787
:1004F00081FF0120ADF8000028208DF80300694637
:100500000148FFF760FE08BD0008014010B5012159
:100510000348FFF7E3FE012800D110BD0020FCE7EF
:100520000008014070472DE9F0418EB080460E462C
:10053000002700243046FFF729FEC5B2FD208DF8C4
:10054000040000208DF80500E81CC0B28DF80600FC
:1005500001208DF8070040EA0810C0B28DF80800AD
:1005600000BF03E001A8005D4740641C052CF9D3DF
:10057000002402E0305D4740641CAC42FAD32A46B6
:1005800031460DF10900FFF7EFFD681D01A90F5479
:10059000A81DC1B201A800F02FFA0EB0BDE8F0818D
:1005A00010B500F001F810BD0CB5002001900090CE
:1005B0003348006840F480303149086000BF30485B
:1005C000006800F4003000900198401C01900098F1
:1005D00018B90198B0F5A06FF1D12948006800F46E
:1005E000003010B10120009001E000200090009840
:1005F000012843D12348006840F0100021490860D9
:100600000846006820F0030008600846006840F0D3
:10061000020008601A484068194948600846406866
:1006200048600846406840F480604860084640687A
:1006300020F47C1048600846406840F4E8104860A8
:100640000846006840F08070086000BF0C480068F1
:1006500000F000700028F9D00948406820F003003D
:10066000074948600846406840F00200486000BF03
:100670000348406800F00C000828F9D10CBD0000C8
:100680000010024000200240042808D14FF0E02171
:10069000096941F004014FF0E022116107E04FF0D9
:1006A000E021096921F004014FF0E0221161704757
:1006B0007047000010B51348006840F00100114970
:1006C000086008464068104908400E4948600846DE
:1006D00000680E4908400B4908600846006820F48D
:1006E000802008600846406820F4FE0048604FF40F
:1006F0001F008860FFF754FF4FF000600449086056
:1007000010BD0000001002400000FFF8FFFFF6FEE1
:1007100008ED00E010B50121094800F054F868B177
:100720000848008840F40040064908800121044838
:1007300000F03AF80021024800F039F810BD00003E
:10074000000400401C0000207FB505460C46012136
:100750000220FFF73FFEADF80450ADF80040002046
:10076000ADF80600ADF8020069460E4800F048F802
:10077000012211460B4800F037F80121094800F02A
:1007800016F81D208DF80C0000208DF80D000220B9
:100790008DF80E0001208DF80F0003A8FFF7D6FD9D
:1007A0007FBD000000040040CA430282704721B1AF
:1007B000028842F00102028004E002884FF6FE73D4
:1007C0001A400280704730B5024600200023002402
:1007D000158A05EA0103958905EA010413B10CB1F4
:1007E000012000E0002030BD1AB183890B438381D2
:1007F00002E083898B4383817047818470470000C6
:10080000002202881D4B98420ED01D4B98420BD0FF
:10081000B0F1804F08D01B4B984205D01A4B98423C
:1008200002D01A4B984204D14FF68F731A404B886E
:100830001A43174B984207D0164B984204D04FF6F4
:10084000FF431A40CB881A4302808B8883850B882C
:1008500003850A4B98420BD0094B984208D00E4BA7
:10086000984205D00D4B984202D00D4B984201D1D1
:100870000B7A03860123838270470000002C01401D
:10088000003401400004004000080040000C00401B
:1008900000100040001400400040014000440140AE
:1008A0000048014010B540F22551164800F0BEF84E
:1008B000F8B1144800F076F9C4B21348008800F487
:1008C0000040B0B910480088C82813DA00210F484A
:1008D000FFF793FF0C48008818B901210B48FFF778
:1008E00066FF094801880088401C074A10800848B4
:1008F000445405E00448008840F400400249088060
:1009000010BD0000004800401C0000200004004012
:100910003400002010B586B0044601210820FFF7FE
:1009200069FD01218804FFF755FD4FF48060ADF8A3
:10093000140003208DF8160018208DF8170005A963
:100940002248FFF740FC4FF40060ADF8140004208B
:100950008DF8170005A91D48FFF735FC27208DF8F5
:10096000000003208DF801008DF8020001208DF8B1
:1009700003006846FFF7EAFC01940020ADF8080088
:10098000ADF80A00ADF80C00ADF810000C20ADF881
:100990000E0001A90E4800F099F8012240F22551FD
:1009A0000B4800F06DF80121094800F033F841F6DA
:1009B0001F416320FFF7C8FE002006490880002180
:1009C0000548FFF7F4FE06B010BD0000000C014022
:1009D000004800401C0000200004004000BF054902
:1009E000098801F040010029F9D00249091D088059
:1009F000704700000048004030B502460B46002416
:100A000005E012F8010BFFF7E9FF601CC4B29C423D
:100A1000F7DB30BD21B1828942F40052828104E0CB
:100A200082894DF6FF731A408281704770B5024685
:100A3000002400230025002040F66A16B14200D1B0
:100A400000BFC1F3421501F01F03012606FA03F3AC
:100A5000012D02D19689334006E0022D02D1168A7B
:100A6000334001E0968A33400C12012606FA04F462
:100A70001688344013B10CB1012000E0002070BD95
:100A8000F0B50346002400260025002040F66A1732
:100A9000B94200D100BF1846C1F3421401F01F064D
:100AA000012707FA06F5012C01D10C3004E0022CD5
:100AB00001D1103000E014301AB107682F430760ED
:100AC00002E00768AF430760F0BD00002DE9F04782
:100AD00086B005460E460024A24600BFA146002768
:100AE000B08900B100BF2F462C8A4CF6FF7004403D
:100AF000F08804432C82AC894EF6F3100440B08891
:100B000031890843718908430443AC81AC8A4FF6AC
:100B1000FF400440B0890443AC8201A8FFF77AFC8F
:100B20001F48874202D1DDF810A001E0DDF80CA0DB
:100B3000A88900F4004040B10AEBCA0000EB0A109B
:100B400031684900B0FBF1F807E00AEBCA0000EB9E
:100B50000A1031688900B0FBF1F86420B8FBF0F0AE
:100B600004012009642101FB1089A88900F40040D8
:100B700040B1322000EBC900B0FBF1F000F00700FB
:100B8000044308E0322000EB09106421B0FBF1F0CF
:100B900000F00F0004432C8106B0BDE8F087000090
:100BA0000038014001468888C0F30800704700BF44
:100BB000FEE702E008C8121F08C1002AFAD17047F8
:100BC0007047002001E001C1121F002AFBD17047CD
:100BD00010B56FF00400FFF757FD0A4800680A4996
:100BE000B0FBF1F0094908700846007800EB4001BD
:100BF000C1EBC0104FF6FF7101EAC0000449088044
:100C000010BD00000000002000127A001400002037
:100C1000160000200146114A12884A434FF0E02393
:100C20005A6100229A611A46126942F001021A6161
:100C300000BF4FF0E022106900F001021AB100F489
:100C40008032002AF5D04FF0E022126922F0010232
:100C50004FF0E0231A6100229A61704716000020CD
:100C60004FF4A060FFF7AAFBFFF7B2FF4FF4165056
:100C7000FFF750FEFFF738FCFFF73EFB0120194954
:100C800008601949C1F894012AE00020154908605C
:100C90004FF4FA60FFF7BEFFFFF738FC012815D1CB
:100CA0000520FFF7B7FF0020104908600A20FFF772
:100CB000B1FFFFF72BFC012803D10DA10220FFF7A4
:100CC00032FC40F2DC50FFF7A5FF05E001200749A8
:100CD00008606420FFF79EFF4FF47A70FFF79AFFD9
:100CE000D3E7000094812142000023429401234273
:100CF0005B76375D5B6D305D5B74355DBEAFB8E6CE
:100D000000000000240D0008000000203400000056
:100D1000B20B0008580D000834000020CC0400007D
:100D2000C20B000800A24A040000000000000000FE
:100D3000010203040607080900000000000000008B
:100D40000000000000000102030401020304060782
:080D5000080902040608000076
:0400000508000145A9
:00000001FF
